{
  "contractName": "Adoption",
  "abi": [
    {
      "payable": true,
      "stateMutability": "payable",
      "type": "fallback"
    },
    {
      "constant": true,
      "inputs": [
        {
          "internalType": "uint256",
          "name": "",
          "type": "uint256"
        }
      ],
      "name": "adopters",
      "outputs": [
        {
          "internalType": "address",
          "name": "",
          "type": "address"
        }
      ],
      "payable": false,
      "stateMutability": "view",
      "type": "function"
    },
    {
      "constant": true,
      "inputs": [],
      "name": "amount",
      "outputs": [
        {
          "internalType": "uint256",
          "name": "",
          "type": "uint256"
        }
      ],
      "payable": false,
      "stateMutability": "view",
      "type": "function"
    },
    {
      "constant": false,
      "inputs": [
        {
          "internalType": "uint256",
          "name": "petId",
          "type": "uint256"
        }
      ],
      "name": "adopt",
      "outputs": [
        {
          "internalType": "uint256",
          "name": "",
          "type": "uint256"
        }
      ],
      "payable": false,
      "stateMutability": "nonpayable",
      "type": "function"
    },
    {
      "constant": true,
      "inputs": [],
      "name": "getAdopters",
      "outputs": [
        {
          "internalType": "address[16]",
          "name": "",
          "type": "address[16]"
        }
      ],
      "payable": false,
      "stateMutability": "view",
      "type": "function"
    },
    {
      "constant": false,
      "inputs": [
        {
          "internalType": "uint256",
          "name": "petId",
          "type": "uint256"
        }
      ],
      "name": "abondon",
      "outputs": [
        {
          "internalType": "uint256",
          "name": "",
          "type": "uint256"
        }
      ],
      "payable": false,
      "stateMutability": "nonpayable",
      "type": "function"
    },
    {
      "constant": false,
      "inputs": [
        {
          "internalType": "address payable",
          "name": "_addr",
          "type": "address"
        }
      ],
      "name": "send",
      "outputs": [],
      "payable": true,
      "stateMutability": "payable",
      "type": "function"
    },
    {
      "constant": true,
      "inputs": [],
      "name": "getBalance",
      "outputs": [
        {
          "internalType": "uint256",
          "name": "",
          "type": "uint256"
        }
      ],
      "payable": false,
      "stateMutability": "view",
      "type": "function"
    }
  ],
  "bytecode": "0x6080604052674563918244f4000060105534801561001c57600080fd5b506104fa8061002c6000396000f3fe6080604052600436106100705760003560e01c806343ae80d31161004e57806343ae80d3146101345780638588b2c5146101af578063aa8c217c146101fe578063ba2940631461022957610070565b806312065fe0146100725780633de4eb171461009d5780633e58c58c146100f0575b005b34801561007e57600080fd5b50610087610278565b6040518082815260200191505060405180910390f35b3480156100a957600080fd5b506100b2610280565b6040518082601060200280838360005b838110156100dd5780820151818401526020810190506100c2565b5050505090500191505060405180910390f35b6101326004803603602081101561010657600080fd5b81019080803573ffffffffffffffffffffffffffffffffffffffff169060200190929190505050610301565b005b34801561014057600080fd5b5061016d6004803603602081101561015757600080fd5b810190808035906020019092919050505061034d565b604051808273ffffffffffffffffffffffffffffffffffffffff1673ffffffffffffffffffffffffffffffffffffffff16815260200191505060405180910390f35b3480156101bb57600080fd5b506101e8600480360360208110156101d257600080fd5b8101908080359060200190929190505050610380565b6040518082815260200191505060405180910390f35b34801561020a57600080fd5b506102136103f1565b6040518082815260200191505060405180910390f35b34801561023557600080fd5b506102626004803603602081101561024c57600080fd5b81019080803590602001909291905050506103f7565b6040518082815260200191505060405180910390f35b600047905090565b6102886104a2565b60006010806020026040519081016040528092919082601080156102f7576020028201915b8160009054906101000a900473ffffffffffffffffffffffffffffffffffffffff1673ffffffffffffffffffffffffffffffffffffffff16815260200190600101908083116102ad575b5050505050905090565b8073ffffffffffffffffffffffffffffffffffffffff166108fc6010549081150290604051600060405180830381858888f19350505050158015610349573d6000803e3d6000fd5b5050565b6000816010811061035a57fe5b016000915054906101000a900473ffffffffffffffffffffffffffffffffffffffff1681565b60008082101580156103935750600f8211155b61039c57600080fd5b33600083601081106103aa57fe5b0160006101000a81548173ffffffffffffffffffffffffffffffffffffffff021916908373ffffffffffffffffffffffffffffffffffffffff160217905550819050919050565b60105481565b600080339050600080846010811061040b57fe5b0160009054906101000a900473ffffffffffffffffffffffffffffffffffffffff1690508073ffffffffffffffffffffffffffffffffffffffff168273ffffffffffffffffffffffffffffffffffffffff161461046757600080fd5b6000846010811061047457fe5b0160006101000a81549073ffffffffffffffffffffffffffffffffffffffff02191690558392505050919050565b60405180610200016040528060109060208202803883398082019150509050509056fea265627a7a72315820432ed488fd575d13312d54b536ab35e924ab0d2f2c7130a8c403315bb0b3e17364736f6c63430005100032",
  "source": "pragma solidity ^0.5.0;\n\ncontract Adoption {\n    address[16] public adopters;\n    uint public amount = 5 ether;\n    \n    // Adopting a pet\n    function adopt(uint petId) public returns (uint) {\n        require(petId >= 0 && petId <= 15);\n        adopters[petId] = msg.sender;\n        return petId;\n    }\n\n    // Retrieving the adopters\n    function getAdopters() public view returns (address[16] memory) {\n        return adopters;\n    }\n\n    // Abondon\n    function abondon(uint petId) public returns (uint) {\n        address expected = msg.sender;\n        address onwer = adopters[petId];\n        require(expected == onwer);\n        delete adopters[petId];\n        return petId;\n    }\n\n    //Send\n    function send(address payable _addr) payable public {\n        //require(balanceOf() >= amount);\n        _addr.transfer(amount);\n    }\n\n    function getBalance() public view returns (uint256) {\n        return address(this).balance;\n    }\n\n    function() external payable {\n    // this function enables the contract to receive funds\n    }\n}\n",
  "sourcePath": "/Users/soulofshadow/Desktop/PetShop/contracts/Adoption.sol",
  "compiler": {
    "name": "solc",
    "version": "0.5.16+commit.9c3226ce.Emscripten.clang"
  },
  "schemaVersion": "3.4.8",
  "updatedAt": "2022-07-20T10:41:04.626Z",
  "devdoc": {
    "methods": {}
  },
  "userdoc": {
    "methods": {}
  }
}